:020000040000FA
:060000000A128A110C280F
:10000800FE00030EF1000A08F2000A128A118D2E72
:100018000A128A110F288313E030FD000730FE0012
:100028001730FF00A03084000A128A15A6270A128A
:100038008A11BB01BC01BD01BE01BF01C001C101E4
:10004800C201C301C401C501C601C701F801F90114
:10005800FA0183010A128A11312883120313B801A5
:10006800B701B901BA01C03083160313850083169E
:1000780003178801FF30831603138600FF308312AD
:10008800031386008030B3003308831603138705F3
:10009800C03083120313B30033088316031789058E
:1000A800DF3083120313B300330887040730831645
:1000B80003138100FF309500F0308B008312031387
:1000C8008101831603130C14831203131013901663
:1000D80010169011901010140C10DC308E000B309C
:1000E8008F00023083120313B5000430B400B93016
:1000F800B300B30B7D28B40B7D28B50B7D2884286D
:10010800DF3083120313B3003308870502308312EC
:100118000313B5000430B400B930B300B30B922810
:10012800B40B9228B50B92289928831203138716CB
:10013800023083120313B5000430B400B930B300A1
:10014800B30BA428B40BA428B50BA428AB28DF3024
:1001580083120313B3003308870502308312031395
:10016800B5000430B400B930B300B30BB928B40BF0
:10017800B928B50BB928C028831203138716023093
:1001880083120313B5000430B400B930B300B30BC5
:10019800CB28B40BCB28B50BCB28D22800300A12B9
:1001A8008A11EF240A128A11F30101300A128A1106
:1001B800D5260A128A110D3083120313B400FB30BE
:1001C800B300B30BE528B40BE5280A128A15B52746
:1001D8000A128A1183120313B3003308B600F6011A
:1001E80008300A128A118A270A128A1114300A1250
:1001F8008A115C250A128A11F601F60A00300A12E1
:100208008A118A270A128A1120300A128A115C255B
:100218000A128A11F601F60A0D300A128A118A2783
:100228000A128A112A300A128A115C250A128A11C6
:10023800F73083120313B300330887050D30831298
:100248000313B400FB30B300B30B2829B40B2829DF
:10025800DF3083120313B30033088705861A352964
:1002680036295B29273083120313B400F430B30016
:10027800B30B3C29B40B3C29000083120313861AE4
:10028800462947295B293808031D4B294C2956293B
:100298000A128A157D270A128A1183120313B300E2
:1002A8003308B6000A128A1571270A128A118312B6
:1002B8000313061B6029612986292730831203133B
:1002C800B400F430B300B30B6729B40B67290000FE
:1002D80083120313061B7129722986293808031D06
:1002E8007629772981290A128A15B5270A128A11CF
:1002F80083120313B3003308B6000A128A15712754
:100308000A128A118312031386188B298C29C02993
:10031800273083120313B400F430B300B30B9229CF
:10032800B40B922900008312031386189C299D2977
:10033800C0290A128A1571270A128A11BF3083123E
:100348000313B30033088705063083120313B5007F
:100358001330B400AD30B300B30BB029B40BB029DF
:10036800B50BB0290A128A11E2270A128A118312E0
:100378000313B3003308B800861BC329C429E42932
:10038800273083120313B400F430B300B30BCA2927
:10039800B40BCA29000083120313861BD429D5295C
:1003A800E4290A128A158F270A128A118312031365
:1003B800B3003308B8000A128A1571270A128A1185
:1003C800831203138619E929EA29392A413083124D
:1003D8000313B400ED30B300B30BF029B40BF029CC
:1003E800F529831203138619FA29FB29392AEF30D4
:1003F800B300330887050A128A1571270A128A1171
:10040800823083120313B400DD30B300B30B0A2A21
:10041800B40B0A2A8312031387152130831203139E
:10042800B4007530B300B30B172AB40B172A1C2A73
:10043800F73083120313B300330887052130831282
:100448000313B4007530B300B30B282AB40B282A61
:100458002D2A64308312031346020318342A352ADE
:10046800392A0130B3003308C60706193C2A3D2A49
:10047800862A413083120313B400ED30B300B30B66
:10048800432AB40B432A482A8312031306194D2A18
:100498004E2A862A07160A128A1571270A128A1105
:1004A800823083120313B400DD30B300B30B5A2A31
:1004B800B40B5A2A831203138715213083120313AE
:1004C800B4007530B300B30B672AB40B672A6C2AE3
:1004D800F73083120313B3003308870521308312E2
:1004E8000313B4007530B300B30B782AB40B782A21
:1004F8007D2A8312031346080319832A842A862A2D
:100508000130C6020A128A15E1270A128A11003A36
:1005180003198F2A902AC42A831203133808031D4B
:10052800962A972AC42A0A128A1571270A128A114A
:10053800F601F60A0D300A128A118A270A128A1160
:10054800831203133708031DAA2AAB2ABA2A1C30C0
:100558000A128A115C250A128A11FE3083120313CB
:10056800B30033088705B701B70AC42A2A300A122C
:100578008A115C250A128A11831203130714B70122
:100588008312031337080319CA2ACB2A312B871B76
:10059800CE2ACF2A312B38080319D32AD42A312B53
:1005A8000A128A1571270A128A110A128A158F27C8
:1005B8000A128A110E3083120313B500B330B40047
:1005C8007230B300B30BE62AB40BE62AB50BE62A61
:1005D80000000A128A15CA270A128A1102308312E9
:1005E8000313B5000430B400B930B300B30BFA2AD2
:1005F800B40BFA2AB50BFA2A012B83120313360817
:10060800031D072B082B132B0A128A157D270A12A4
:100618008A1183120313B3003308B6001D2B0A1284
:100628008A15B5270A128A1183120313B3003308F7
:10063800B600823083120313B400DD30B300B30B6D
:10064800232BB40B232B0A128A11E2270A128A11D0
:1006580083120313B3003308B800F6010D300A12F1
:100668008A118A270A128A110A3083120313460252
:1006780003183F2B402B572B27300A128A115C2571
:100688000A128A11831203134608B300B40133080F
:10069800A4003408A500A601A60A0A128A11452456
:1006A8000A128A11862B6430460203185C2B5D2BD4
:1006B800762B28300A128A115C250A128A118312B5
:1006C80003134608B300B4013308A4003408A50096
:1006D8000230B5003508A6000A128A1145240A120C
:1006E8008A11862B4608B300B4013308A4003408E5
:1006F800A5000330B5003508A6000A128A11452462
:100708000A128A11F601F60A07300A128A118A2794
:100718000A128A1183120313440845040319952BFE
:10072800962B32290310420DF300430DF4003C30A0
:10073800F5000030F6000A128A11B7270A128A114A
:10074800730883120313B3007408B4000310B40CC5
:10075800B30C0310B40CB30C0310B40CB30C330873
:10076800B9003408BA0000303A020A3003193902D5
:100778000318BF2BC02BDC2B26300A128A115C25EC
:100788000A128A11F601F60A0A300A128A118A2711
:100798000A128A11831203133A08A5003908A40023
:1007A800A601A60A0A128A1145240A128A11372CB0
:1007B80000303A026430031939020318E42BE52BA0
:1007C800032C27300A128A115C250A128A11F601B5
:1007D800F60A09300A128A118A270A128A11831224
:1007E80003133A08A5003908A4000230B3003308FF
:1007F800A6000A128A1145240A128A11372C0330DE
:100808003A02E8300319390203180B2C0C2C2A2C55
:1008180028300A128A115C250A128A11F601F60A92
:1008280008300A128A118A270A128A1183120313BE
:100838003A08A5003908A4000330B3003308A6001D
:100848000A128A1145240A128A11372C3A08A5007F
:100858003908A4000430B3003308A6000A128A112C
:1008680045240A128A1183120313C401C501C20167
:10087800C301DC308E000B308F0032290A128A1136
:100888000C282A3084000530FF0083138001840A75
:10089800FF0B492C043083120313B1000030B2005F
:1008A800AF01B001A51F592C5A2C9A2CF301F30A59
:1008B8002D300A128A11D5260A128A1183120313BF
:1008C800A409A509A40A0319A50A9A2C0A30F30059
:1008D8000030F4002508F6002408F5000A128A11F1
:1008E80032260A128A11730883120313A7003108EB
:1008F8002A3E84002708831380000A30F300003062
:10090800F4002508F6002408F5000A128A11C92502
:100918000A128A11740883120313A5007308A4002D
:10092800FF30B1070318B20AFF30B20724082504C4
:10093800031D9F2CA02C6A2C260A031DA42CA52C71
:10094800B62CAC2C0130AF070318B00A0030B00742
:100958002F082A3E8400831300080319B42CB52CF1
:10096800A62CC42C2608A700A801A71BA80305309D
:10097800A90027082902AF0028090318013EB00082
:100988003008B2002F08B1003208803AFF008030EA
:100998007F02031DD12C05303102031CD42CD52C29
:1009A800D62CEE2CF301F30A8312031331082A3EE6
:1009B800840083130008303E0A128A11D5260A12D1
:1009C8008A11013083120313B1070318B20A0030E9
:1009D800B207C82C080083120313A4002730F700BD
:1009E800F530F600F60BF62CF70BF62CF030F60087
:1009F800760883160313850585120512F030F60074
:100A080076088312031385058512051200008312E8
:100A18000313851685140000831203138512000042
:100A28001030F600F60B162D0000F30128300A12DC
:100A38008A11D5260A128A111030F600F60B222DDB
:100A48000000F3018312031324080C380A128A11D8
:100A5800D5260A128A111330F600F60B312D342DE3
:100A6800F30140300A128A11D5260A128A11103071
:100A7800F600F60B3D2D000083120313A501F301C8
:100A8800F30A2508A03E8400831300080A128A117D
:100A9800D5260A128A110130F6007608831203134C
:100AA800A50740302502031C5A2D5B2D432D080055
:100AB80083120313A500BC2D250884000A128A118D
:100AC80057270A128A11253A031D6B2D6C2DA82D64
:100AD8000130F6007608A507250884000A128A1155
:100AE80057270A128A11D03EF6007608A400A41BE4
:100AF8007E2D7F2D8F2D2408803A783E0318852D72
:100B0800862D8F2DF301F30A24080A128A11D5269F
:100B18000A128A11B62DF301F30A25300A128A1136
:100B2800D5260A128A11F301F30A83120313250842
:100B380084000A128A1157270A128A110A128A1186
:100B4800D5260A128A11B62DF301F30A2508840066
:100B58000A128A1157270A128A110A128A11D526EF
:100B68000A128A110130F600760883120313A507CA
:100B7800250884000A128A1157270A128A11003A96
:100B8800031DC72DC82D602D080083120313A10172
:100B9800F41FCF2DD02DD72DF309F409F30A03192B
:100BA800F40AA101A10AF61FDA2DDB2DE42DF509BF
:100BB800F609F50A0319F60A0130F7007708A106C5
:100BC800A201A301730874040319EB2DEC2D232E45
:100BD800A001A00AFA2D01300310F30DF40DFF3E19
:100BE800031DF02D0130F7007708A007F41FFD2D35
:100BF800FE2DEF2D01300310A20DA30DFF3E031DA6
:100C0800FF2D74087602031D0B2E73087502031C52
:100C18000E2E0F2E162E7308F5027408031CF60309
:100C2800F602221401300310F40CF30CFF3E031DEE
:100C3800172E0130A002031D222E232EFE2D21087F
:100C48000319272E282E2D2EA209A309A20A03195B
:100C5800A30A2308F4002208F300080083120313F0
:100C6800A101F61F382E392E402EF509F609F50A8E
:100C78000319F60AA101A10AF41F432E442E492E96
:100C8800F309F409F30A0319F40A7308740403193D
:100C98004E2E4F2E7E2EA001A00A5D2E013003108D
:100CA800F30DF40DFF3E031D532E0130F7007708B6
:100CB800A007F41F602E612E522E74087602031DC1
:100CC800672E73087502031C6A2E6B2E712E73082B
:100CD800F5027408031CF603F60201300310F40C45
:100CE800F30CFF3E031D722E0130A002031D7D2E62
:100CF8007E2E612E21080319822E832E882EF50957
:100D0800F609F50A0319F60A7608F4007508F300DF
:100D180008008B1C902E912EA92E033083120313EA
:100D28004302E8300319420203189B2E9C2EA82E7A
:100D380044084504031DA12EA22EA82E0130C20787
:100D48000318C30A0030C3078B10831203130C1C4B
:100D5800AE2EAF2EB42E0C100130C4000030C500EA
:100D68000B1DB72EB82ECE2E0130F0007008FA07F2
:100D780078080319C02EC12EC52EDF30F000700888
:100D880087050B307A02031CCA2ECB2ECD2EFA0112
:100D9800F8010B1172088A00710E8300FE0E7E0E98
:100DA800090083120313A2002208F4000430031080
:100DB800F40CFF3E031DDB2E7408F5007508A00037
:100DC80022080F39F4007408A1007308031DED2EE2
:100DD800EE2EF02E0512F12E05168312031385163A
:100DE8000508F0392004F4007408A30023088500DE
:100DF8000000831203138512000083120313851663
:100E08000508F0392104F4007408A30023088500BC
:100E1800000083120313851200001030F400F40B55
:100E2800132F000008000C34123412340C34003430
:100E3800003400340034003404340E341F340E34CB
:100E480004340034003404340434043404341F34C7
:100E58000E34043400340A34153411340A3404349A
:100E68000034003400340A341F341F340E34043480
:100E780000340034003400340034003400340034CA
:100E880000340034003400340034003400340034BA
:100E980000340034003400340034003400340034AA
:100EA80000340034003407308A000408840A8207BA
:100EB800003402343C340834523445345634453412
:100EC800523453344534003446344F345234573452
:100ED80041345234443400344F34463446340034B8
:100EE80020344F344E3400345434413450340034B8
:100EF8005334703465346534643400342034203419
:100F080020340034723470346D3400348312031387
:100F1800A40014302402031C922F932FA02FB62F65
:100F28002417AE2F1430F7007708A407AE2F5430DB
:100F3800F7007708A407AE2F7608003A0319AE2FFA
:100F4800013A0319942F033A0319962F013A03190A
:100F58009B2FAE2FA417F30124080A128A11D52655
:100F68000A128A11080083120313A001A101731C3D
:100F7800BE2FBF2FC72F750883120313A0070318AE
:100F8800A10A7608A10701300310F50DF60DFF3E02
:100F9800031DC82F01300310F40CF30CFF3E031D92
:100FA800CF2F73087404031DDA2FDB2FBB2F831296
:100FB80003132108F4002008F3000800FD30831211
:100FC8000313A60026088705BF30A6002608870554
:100FD800F60108300A128A118A270A128A11183073
:0E0FE8000A128A115C250A128A1101300800D3
:101EE2007808031D752F762F7C2FF801F80A8312CC
:101EF2000313871681010800F60100300A128A11C5
:101F02008A270A128A1504300A128A115C250A12DB
:101F12008A15831203130715013008008312031375
:101F220087140717F60108300A128A118A270A1243
:101F32008A1514300A128A115C250A128A15003099
:101F420008007E088A007F0882000A128A15A227EA
:101F52000A128A158000840A04087D0603190034D7
:101F6200FF0A0319FE0AA62FF60100300A128A118F
:101F72008A270A128A150C300A128A115C250A1263
:101F82008A15FB3083120313A6002608870500304A
:101F920008008312031387160230F5000430F400A0
:101FA200BA30F300F30BD32FF40BD32FF50BD32F4F
:101FB2000000DF30F3007308831203138705080063
:101FC200F501F301F401F82F3A3074029830031945
:101FD20073020318ED2FEE2FF52F0130F3070318CC
:101FE200F40A0030F407F82FF501F50AFE2F8312E8
:0E1FF2000313061EFD2FFE2FE52F75080800B5
:04400E00222FFF3F1F
:00000001FF
